:1000000004308A00FB2C00000A108A100A118207B3
:1000100028340C34013406348C29E931E135EC34D0
:10002000EB1E0000393084008313000803192628D2
:100030000130F800F701F70B1B28F80B1A284A309B
:10004000F700F70B21282428800B182808004018F7
:100050002B2806122C280616831606128312C018A7
:100060003328861234288616831686128312401986
:100070003B2806133C280617831606138312C01963
:10008000432886134428861783168613000083129C
:100090000614831606104C288312061083160610C9
:1000A00083120800C1018316061600308312061A57
:1000B0000130C1048316861600308312861A01307F
:1000C000F7000310F70D7708C104831606170030F8
:1000D0008312061B0130F700F70DF70DFC30F70512
:1000E0007708C1048316861700308312861B0130FF
:1000F000F700F70DF70DF70DF830F7057708C10495
:100100004108F800080083160610861006118312B5
:100110008610831686100616861606178617831213
:1001200006158316061100008312061483160610A6
:100130000000831252207808C000061083160610B3
:10014000000083120614831606100000831252204A
:100150007808BF00061083160610061286120613D2
:1001600086138312400EF700F030F70577083F043E
:10017000F8007808BF00BF1FBF2883168B28BD0872
:10018000031DC4288610C528861483168610000017
:1001900083120611831606110000831206108316BF
:1001A000061083123E0EBF000F30BF053F08C0008F
:1001B00027203E080F39BF00C00027200800831603
:1001C0000612861206138613061086100611831275
:1001D0008610831686108312061183160611831269
:1001E0000610831606100F308312B900122001305A
:1001F000AB002B08033C031C05290330C00027205B
:100200000530B9001220AB0AF9280230C0002720BF
:100210000530B9001220AB012B08033C031C19293F
:100220002B080420AC00BD012C08BE008320AB0AC3
:100230000C298A110A12522D3A0B1F29222940300B
:10024000BB002329BB0101303902BB073B088038C2
:10025000BC00BD013C08BE00832008003808073AF6
:1002600003193C290B3A03194129063A0319492974
:10027000023A03194F2954290130B900BA001C2150
:100280005929BD010130BE0083200230B90012207F
:1002900059290130B9000230BA001C215929BD0189
:1002A0001030BE00832059290130BD003808BE003F
:1002B000832008000B08AB008B13831603178C17E1
:1002C0000C140000000083120C087F390319A129C7
:1002D0000313AC0003170D080313AD0003170F0839
:1002E0000313AE002C08B8002E212D0803178D0033
:1002F00003132E0803178F0083168C170C140000AD
:10030000000083120C0D0E0D7F390319A129031370
:10031000AC0003170D080313AD0003170F080313F8
:10032000AE002C08B8002E212D0803178D000313F2
:100330002E0803178F008D0A03198F0A03135D29F6
:1003400003170313AB1B8B178A110A12642D8E300F
:10035000F7002C08F8002B08F900FA01F808031D33
:10036000BB297908F800F9010830F702F808031DE5
:10037000BB29F701C3290310F81BC229F90DF80D99
:10038000F703BB29F8138A110A12722D38080319D2
:10039000362AC0003C080319362AC0070318D7299B
:1003A0007F30C002031C362A0319362ADB2981302C
:1003B000C0070318362A4008F700F801F901FA01CE
:1003C0003908C400C4173A08C3003B08C2001830FB
:1003D000C000C101421C042A3F08FA07031CF62989
:1003E000F90A031DF629F80A0319C1173E08F9078F
:1003F000031CFD29F80A0319C1173D08BA00BA17F2
:100400003A08F8070318C117C10DF80CF90CFA0CDB
:10041000C40CC30CC20C0310C00BE9290130F70750
:100420000318362AF81B1B2AC40DFA0DF90DF80D16
:10043000F7030319362AC41F2C2AFA0A031D2C2A93
:10044000F90A031D2C2AF80A031D2C2AF80CF90CB2
:10045000FA0CF70A0319362A3908C1003D08C1060B
:10046000C11F342AF8173A2AF8133A2AF701F8017B
:10047000F901FA01080080308318B406B901BA0105
:100480003008B8003408B8062F0803192B2BB70022
:10049000F70033080319342BB7020319D02A031CC1
:1004A0008E2A3408BD00BD173508BC003608BB00D5
:1004B000BA010310BD0CBC0CBB0CBA0CB70B582A0C
:1004C000B81F652A3914482B3910371039163230C5
:1004D000840083135D2B3912B81B782A371C832ABA
:1004E000BD0CBC0CBB0CBA0CF70A0319432B832AB6
:1004F000BD1B862A0310BA0DBB0DBC0DBD0DF70345
:100500000319432B782A3917F02A39133008B80019
:10051000B81F8C2ABD173C2BBD133C2B3308B700EA
:10052000F7002F08B7023008BD00BD173108BC0026
:100530003208BB00BA010310BD0CBC0CBB0CBA0CDA
:10054000B70B9A2AB81FA72AB914482BB91037102D
:10055000B9163630840083135D2BB912B81BBA2A42
:10056000371CC52ABD0CBC0CBB0CBA0CF70A03190E
:10057000432BC52ABD1BC82A0310BA0DBB0DBC0DE9
:10058000BD0DF7030319432BBA2AB917F02AB91383
:100590003408B800B81FCE2ABD173C2BBD133C2B26
:1005A0003408BD00BD173508BC003608BB00B81FB5
:1005B000DD2ABD133915482B3911BA0137103230F5
:1005C000840083135D2BB81B062B3008B800371C42
:1005D000F02ABD0CBC0CBB0CBA0CF70A0319432B58
:1005E000BA1F012BBB0A031D012BBC0A031D012BE3
:1005F000BD0A031D012BBD0CBC0CBB0CF70A031973
:10060000432B391B852AB91BC72A252B8030BD06F1
:10061000BD1F0E2B482B3408B8001B2B3008B80028
:10062000BD08031D1B2BBC08031D1B2BBB08031D92
:100630001B2BF7013C2BBD1B252B0310BA0DBB0D4B
:10064000BC0DBD0DF70B1B2B432BB81F292BBD1762
:100650003C2BBD133C2B3308F7003408BD00350894
:10066000BC003608BB003C2B2F08F7003008BD004B
:100670003108BC003208BB003D08F8003C08F90016
:100680003B08FA007B2BF701F801F901FA017B2BFB
:10069000BA01BB09BC09BD09BA09BA0A031D562B28
:1006A000BB0A031D562BBC0A0319BD0A3918642A5C
:1006B000B918A62A3919DC2A0B2B0008BB07031C22
:1006C000672BBC0A031D672BBD0A0319371484036B
:1006D0000008BC07031C6F2BBD0A031937148403E1
:1006E0000008801F803ABD0703183714391A6B2A97
:1006F000B91AAD2AE32A8A110A12B32D2C08B300C5
:100700003008B306B31F892B03110310AC1B03146D
:10071000BC2B2C08B3002F08B4002B08B40203191B
:10072000972BB31FBC2B0308013A8300BC2B300866
:10073000B4002C08B4020319A32BB31FBC2B03086D
:10074000013A8300BC2B3108B4002D08B402031910
:10075000AF2BB31FBC2B0308013A8300BC2B32081C
:10076000B4002E08B4020319BB2BB31FBC2B030823
:10077000013A8300BC2B03100800AA112A08831633
:10078000870083128715AA102A0883168700831210
:10079000871008008318CF2B403084008313F701A3
:1007A000F801F901FA01C001C101C201C3013F080A
:1007B0003E043D043C0403190D2C2030C4000310FA
:1007C000B80DB90DBA0DBB0DC00DC10DC20DC30DD5
:1007D0003F084302031DF62B3E084202031DF62B81
:1007E0003D084102031DF62B3C084002031C072C68
:1007F0003C08C0023D08031C3D0FC1023E08031C1B
:100800003E0FC2023F08031C3F0FC3020314F70D43
:10081000F80DF90DFA0DC40BDF2B40088000840A97
:1008200041088000840A42088000840A430880004E
:1008300008000408B0002F08B2000319382C2E0855
:10084000BB002D08BA002C08B9002B08B800BF0166
:10085000BE012030BD008230BC00C6217A08AE0047
:100860007908AD007808AC007708AB00B20B1F2CFC
:100870002E08BB002D08BA002C08B9002B08B800C0
:100880003808B63CB800FA013908BC00B9170310A3
:10089000B90CBA0CBB0CFA0CF90CF80CF70CB80B31
:1008A000472CBC1F5E2CF709F809F909FA09F70A69
:1008B0000319F80A0319F90A0319FA0A7A08AE00AB
:1008C0007908AD007808AC007708AB00AE1F752C36
:1008D000B003B016AB09AC09AD09AE09AB0A0319F8
:1008E000AC0A0319AD0A0319AE0A3B30B7009A30BF
:1008F000B600CA30B500B4010A30B2002F0803199F
:10090000B00A83142B30840083132E08BB002D08FB
:10091000BA002C08B9002B08B8003708BF00360809
:10092000BE003508BD003408BC00CA237808F708AB
:10093000031DAD2C2F0A32020319AD2C3008031908
:10094000AF2C0F3932020319A72C0318DF2CB01B70
:10095000DF2C301BAF2C2030DB2C2030B005B01E3C
:10096000BD2CB0122F08031DB0037708B0002D3046
:10097000B8002E213008F700B0012F083202031D05
:10098000CB2C7708B0002E30B8002E213008F700AD
:100990002030B00500303030B01EDB2CB0122F08F4
:1009A000031DB0037708B0002D30B8002E213008A9
:1009B000F700B0013030F7077708B8002E21831018
:1009C0003708BB003608BA003508B9003408B8004B
:1009D000BF01BE01BD010A30BC00CA237A08B700BE
:1009E0007908B6007808B5007708B400B20B812CFE
:1009F0008A110A127F2EFF30AA0083161F149F143B
:100A00001F159F1107309C0083131F30830583122D
:100A10009412AA122A088316870083122A162A081B
:100A2000831687008312AA112A08831687000130D3
:100A3000831294000030831694000108C7390838E7
:100A40008100831290010030F80006389200FF30D8
:100A50008316920007309C00050885000230F700DD
:100A6000F70B302D332D00001C0883120D13831655
:100A70009D0101308500003087008312AA00F0300C
:100A800097059D0583161F1383121F139F17831647
:100A90009F1783121F1483161F109F141F159F1575
:100AA0008312DF280030F8001F08C73978049F0040
:100AB0000630F700F70B5A2D00000C3003178D009D
:100AC00000308F0003135A291F151F19652D831637
:100AD0001E088312A0001E08A1002108AC002008F7
:100AE000AB00A729FF30BB00BA001F30B900773038
:100AF000B8007A08BF007908BE007808BD00770802
:100B0000BC00C6217A08A9007908A8007808A700C7
:100B10007708A6002908BB002808BA002708B900F2
:100B20002608B800BF01BE014830BD008530BC00BA
:100B3000C6217A08AE007908AD007808AC007708C5
:100B4000AB0083147A08B2007908B1007808B000CD
:100B50007708AF00CD30B600CC30B5004C30B400D3
:100B60007C30B3003B2A7A08A5007908A4007808F5
:100B7000A3007708A2002508AE002408AD002308D2
:100B8000AC002208AB00B201B1017030B00083307C
:100B9000AF007E230318BD23AE01AD017030AC0061
:100BA0008330AB002508B2002408B1002308B00050
:100BB0002208AF007E230318DF2D031DF02D25082A
:100BC000AE002408AD002308AC002208AB00B2013F
:100BD000B1010C30B0008430AF007E230318BD2378
:100BE000AE01AD010C30AC008430AB002508B20082
:100BF0002408B1002308B0002208AF007E230318A8
:100C0000032E031D142E2508AE002408AD00230872
:100C1000AC002208AB00B201B1012030B00084303A
:100C2000AF007E230318BD23AE01AD012030AC0020
:100C30008430AB002508B2002408B1002308B000BE
:100C40002208AF007E230318272E031D382E250807
:100C5000AE002408AD002308AC002208AB00B201AE
:100C6000B1013430B0008430AF007E230318BD23BF
:100C7000AE01AD013430AC008430AB002508B200C9
:100C80002408B1002308B0002208AF007E23031817
:100C90004B2E031D5C2E2508AE002408AD00230852
:100CA000AC002208AB00B201B1014830B000843082
:100CB000AF007E230318BD23AE01AD014830AC0068
:100CC0008430AB002508B2002408B1002308B0002E
:100CD0002208AF007E230318BD230A30B90001307B
:100CE000BA001C21043084002508AE002408AD00A1
:100CF0002308AC002208AB000130AF00192C2730CC
:100D0000B8002E214330B8002E216430B9001220E3
:040D1000642D6300EB
:02400E00313F40
:00000001FF
;PIC16F877A
;CRC=E9F0  CREATED="28-Haz-21 09:31"
